{
  "contractName": "Picasso",
  "abi": [
    {
      "inputs": [],
      "stateMutability": "nonpayable",
      "type": "constructor"
    },
    {
      "anonymous": false,
      "inputs": [
        {
          "indexed": true,
          "internalType": "address",
          "name": "owner",
          "type": "address"
        },
        {
          "indexed": true,
          "internalType": "address",
          "name": "approved",
          "type": "address"
        },
        {
          "indexed": true,
          "internalType": "uint256",
          "name": "tokenId",
          "type": "uint256"
        }
      ],
      "name": "Approval",
      "type": "event"
    },
    {
      "anonymous": false,
      "inputs": [
        {
          "indexed": true,
          "internalType": "address",
          "name": "owner",
          "type": "address"
        },
        {
          "indexed": true,
          "internalType": "address",
          "name": "operator",
          "type": "address"
        },
        {
          "indexed": false,
          "internalType": "bool",
          "name": "approved",
          "type": "bool"
        }
      ],
      "name": "ApprovalForAll",
      "type": "event"
    },
    {
      "anonymous": false,
      "inputs": [
        {
          "indexed": true,
          "internalType": "address",
          "name": "from",
          "type": "address"
        },
        {
          "indexed": true,
          "internalType": "address",
          "name": "to",
          "type": "address"
        },
        {
          "indexed": true,
          "internalType": "uint256",
          "name": "tokenId",
          "type": "uint256"
        }
      ],
      "name": "Transfer",
      "type": "event"
    },
    {
      "inputs": [
        {
          "internalType": "address",
          "name": "to",
          "type": "address"
        },
        {
          "internalType": "uint256",
          "name": "tokenId",
          "type": "uint256"
        }
      ],
      "name": "approve",
      "outputs": [],
      "stateMutability": "nonpayable",
      "type": "function"
    },
    {
      "inputs": [
        {
          "internalType": "address",
          "name": "owner",
          "type": "address"
        }
      ],
      "name": "balanceOf",
      "outputs": [
        {
          "internalType": "uint256",
          "name": "",
          "type": "uint256"
        }
      ],
      "stateMutability": "view",
      "type": "function",
      "constant": true
    },
    {
      "inputs": [
        {
          "internalType": "uint256",
          "name": "tokenId",
          "type": "uint256"
        }
      ],
      "name": "getApproved",
      "outputs": [
        {
          "internalType": "address",
          "name": "",
          "type": "address"
        }
      ],
      "stateMutability": "view",
      "type": "function",
      "constant": true
    },
    {
      "inputs": [
        {
          "internalType": "address",
          "name": "owner",
          "type": "address"
        },
        {
          "internalType": "address",
          "name": "operator",
          "type": "address"
        }
      ],
      "name": "isApprovedForAll",
      "outputs": [
        {
          "internalType": "bool",
          "name": "",
          "type": "bool"
        }
      ],
      "stateMutability": "view",
      "type": "function",
      "constant": true
    },
    {
      "inputs": [
        {
          "internalType": "uint256",
          "name": "",
          "type": "uint256"
        }
      ],
      "name": "mintedTokenIds",
      "outputs": [
        {
          "internalType": "uint256",
          "name": "",
          "type": "uint256"
        }
      ],
      "stateMutability": "view",
      "type": "function",
      "constant": true
    },
    {
      "inputs": [],
      "name": "name",
      "outputs": [
        {
          "internalType": "string",
          "name": "",
          "type": "string"
        }
      ],
      "stateMutability": "view",
      "type": "function",
      "constant": true
    },
    {
      "inputs": [
        {
          "internalType": "uint256",
          "name": "tokenId",
          "type": "uint256"
        }
      ],
      "name": "ownerOf",
      "outputs": [
        {
          "internalType": "address",
          "name": "",
          "type": "address"
        }
      ],
      "stateMutability": "view",
      "type": "function",
      "constant": true
    },
    {
      "inputs": [
        {
          "internalType": "address",
          "name": "from",
          "type": "address"
        },
        {
          "internalType": "address",
          "name": "to",
          "type": "address"
        },
        {
          "internalType": "uint256",
          "name": "tokenId",
          "type": "uint256"
        }
      ],
      "name": "safeTransferFrom",
      "outputs": [],
      "stateMutability": "nonpayable",
      "type": "function"
    },
    {
      "inputs": [
        {
          "internalType": "address",
          "name": "from",
          "type": "address"
        },
        {
          "internalType": "address",
          "name": "to",
          "type": "address"
        },
        {
          "internalType": "uint256",
          "name": "tokenId",
          "type": "uint256"
        },
        {
          "internalType": "bytes",
          "name": "_data",
          "type": "bytes"
        }
      ],
      "name": "safeTransferFrom",
      "outputs": [],
      "stateMutability": "nonpayable",
      "type": "function"
    },
    {
      "inputs": [
        {
          "internalType": "address",
          "name": "operator",
          "type": "address"
        },
        {
          "internalType": "bool",
          "name": "approved",
          "type": "bool"
        }
      ],
      "name": "setApprovalForAll",
      "outputs": [],
      "stateMutability": "nonpayable",
      "type": "function"
    },
    {
      "inputs": [
        {
          "internalType": "bytes4",
          "name": "interfaceId",
          "type": "bytes4"
        }
      ],
      "name": "supportsInterface",
      "outputs": [
        {
          "internalType": "bool",
          "name": "",
          "type": "bool"
        }
      ],
      "stateMutability": "view",
      "type": "function",
      "constant": true
    },
    {
      "inputs": [],
      "name": "symbol",
      "outputs": [
        {
          "internalType": "string",
          "name": "",
          "type": "string"
        }
      ],
      "stateMutability": "view",
      "type": "function",
      "constant": true
    },
    {
      "inputs": [
        {
          "internalType": "uint256",
          "name": "index",
          "type": "uint256"
        }
      ],
      "name": "tokenByIndex",
      "outputs": [
        {
          "internalType": "uint256",
          "name": "",
          "type": "uint256"
        }
      ],
      "stateMutability": "view",
      "type": "function",
      "constant": true
    },
    {
      "inputs": [
        {
          "internalType": "address",
          "name": "owner",
          "type": "address"
        },
        {
          "internalType": "uint256",
          "name": "index",
          "type": "uint256"
        }
      ],
      "name": "tokenOfOwnerByIndex",
      "outputs": [
        {
          "internalType": "uint256",
          "name": "",
          "type": "uint256"
        }
      ],
      "stateMutability": "view",
      "type": "function",
      "constant": true
    },
    {
      "inputs": [],
      "name": "totalSupply",
      "outputs": [
        {
          "internalType": "uint256",
          "name": "",
          "type": "uint256"
        }
      ],
      "stateMutability": "view",
      "type": "function",
      "constant": true
    },
    {
      "inputs": [
        {
          "internalType": "address",
          "name": "from",
          "type": "address"
        },
        {
          "internalType": "address",
          "name": "to",
          "type": "address"
        },
        {
          "internalType": "uint256",
          "name": "tokenId",
          "type": "uint256"
        }
      ],
      "name": "transferFrom",
      "outputs": [],
      "stateMutability": "nonpayable",
      "type": "function"
    },
    {
      "inputs": [
        {
          "internalType": "uint256",
          "name": "tokenId",
          "type": "uint256"
        }
      ],
      "name": "tokenURI",
      "outputs": [
        {
          "internalType": "string",
          "name": "",
          "type": "string"
        }
      ],
      "stateMutability": "view",
      "type": "function",
      "constant": true
    },
    {
      "inputs": [
        {
          "internalType": "address",
          "name": "recipient",
          "type": "address"
        },
        {
          "internalType": "string",
          "name": "URI",
          "type": "string"
        }
      ],
      "name": "mintNFT",
      "outputs": [
        {
          "internalType": "uint256",
          "name": "",
          "type": "uint256"
        }
      ],
      "stateMutability": "nonpayable",
      "type": "function"
    },
    {
      "inputs": [],
      "name": "totalMinted",
      "outputs": [
        {
          "internalType": "uint256",
          "name": "",
          "type": "uint256"
        }
      ],
      "stateMutability": "view",
      "type": "function",
      "constant": true
    }
  ],
  "bytecode": "0x60806040523480156200001157600080fd5b506040518060400160405280600781526020017f5069636173736f000000000000000000000000000000000000000000000000008152506040518060400160405280600781526020017f5049434153534f00000000000000000000000000000000000000000000000000815250816000908051906020019062000096929190620000b8565b508060019080519060200190620000af929190620000b8565b505050620001cd565b828054620000c69062000197565b90600052602060002090601f016020900481019282620000ea576000855562000136565b82601f106200010557805160ff191683800117855562000136565b8280016001018555821562000136579182015b828111156200013557825182559160200191906001019062000118565b5b50905062000145919062000149565b5090565b5b80821115620001645760008160009055506001016200014a565b5090565b7f4e487b7100000000000000000000000000000000000000000000000000000000600052602260045260246000fd5b60006002820490506001821680620001b057607f821691505b60208210811415620001c757620001c662000168565b5b50919050565b61348e80620001dd6000396000f3fe608060405234801561001057600080fd5b50600436106101215760003560e01c80636352211e116100ad578063b88d4fde11610071578063b88d4fde1461032e578063b95b63f81461034a578063c87b56dd1461037a578063e985e9c5146103aa578063eacabe14146103da57610121565b80636352211e1461027657806370a08231146102a657806395d89b41146102d6578063a22cb465146102f4578063a2309ff81461031057610121565b806318160ddd116100f457806318160ddd146101c057806323b872dd146101de5780632f745c59146101fa57806342842e0e1461022a5780634f6ccce71461024657610121565b806301ffc9a71461012657806306fdde0314610156578063081812fc14610174578063095ea7b3146101a4575b600080fd5b610140600480360381019061013b9190612086565b61040a565b60405161014d91906120ce565b60405180910390f35b61015e610484565b60405161016b9190612182565b60405180910390f35b61018e600480360381019061018991906121da565b610516565b60405161019b9190612248565b60405180910390f35b6101be60048036038101906101b9919061228f565b61059b565b005b6101c86106b3565b6040516101d591906122de565b60405180910390f35b6101f860048036038101906101f391906122f9565b6106c0565b005b610214600480360381019061020f919061228f565b610720565b60405161022191906122de565b60405180910390f35b610244600480360381019061023f91906122f9565b6107c5565b005b610260600480360381019061025b91906121da565b6107e5565b60405161026d91906122de565b60405180910390f35b610290600480360381019061028b91906121da565b610856565b60405161029d9190612248565b60405180910390f35b6102c060048036038101906102bb919061234c565b610908565b6040516102cd91906122de565b60405180910390f35b6102de6109c0565b6040516102eb9190612182565b60405180910390f35b61030e600480360381019061030991906123a5565b610a52565b005b610318610bd3565b60405161032591906122de565b60405180910390f35b6103486004803603810190610343919061251a565b610be0565b005b610364600480360381019061035f91906121da565b610c42565b60405161037191906122de565b60405180910390f35b610394600480360381019061038f91906121da565b610c66565b6040516103a19190612182565b60405180910390f35b6103c460048036038101906103bf919061259d565b610db8565b6040516103d191906120ce565b60405180910390f35b6103f460048036038101906103ef919061267e565b610e4c565b60405161040191906122de565b60405180910390f35b60007f780e9d63000000000000000000000000000000000000000000000000000000007bffffffffffffffffffffffffffffffffffffffffffffffffffffffff1916827bffffffffffffffffffffffffffffffffffffffffffffffffffffffff1916148061047d575061047c82610f1a565b5b9050919050565b60606000805461049390612709565b80601f01602080910402602001604051908101604052809291908181526020018280546104bf90612709565b801561050c5780601f106104e15761010080835404028352916020019161050c565b820191906000526020600020905b8154815290600101906020018083116104ef57829003601f168201915b5050505050905090565b600061052182610ffc565b610560576040517f08c379a0000000000000000000000000000000000000000000000000000000008152600401610557906127ad565b60405180910390fd5b6004600083815260200190815260200160002060009054906101000a900473ffffffffffffffffffffffffffffffffffffffff169050919050565b60006105a682610856565b90508073ffffffffffffffffffffffffffffffffffffffff168373ffffffffffffffffffffffffffffffffffffffff161415610617576040517f08c379a000000000000000000000000000000000000000000000000000000000815260040161060e9061283f565b60405180910390fd5b8073ffffffffffffffffffffffffffffffffffffffff16610636611068565b73ffffffffffffffffffffffffffffffffffffffff16148061066557506106648161065f611068565b610db8565b5b6106a4576040517f08c379a000000000000000000000000000000000000000000000000000000000815260040161069b906128d1565b60405180910390fd5b6106ae8383611070565b505050565b6000600880549050905090565b6106d16106cb611068565b82611129565b610710576040517f08c379a000000000000000000000000000000000000000000000000000000000815260040161070790612963565b60405180910390fd5b61071b838383611207565b505050565b600061072b83610908565b821061076c576040517f08c379a0000000000000000000000000000000000000000000000000000000008152600401610763906129f5565b60405180910390fd5b600660008473ffffffffffffffffffffffffffffffffffffffff1673ffffffffffffffffffffffffffffffffffffffff168152602001908152602001600020600083815260200190815260200160002054905092915050565b6107e083838360405180602001604052806000815250610be0565b505050565b60006107ef6106b3565b8210610830576040517f08c379a000000000000000000000000000000000000000000000000000000000815260040161082790612a87565b60405180910390fd5b6008828154811061084457610843612aa7565b5b90600052602060002001549050919050565b6000806002600084815260200190815260200160002060009054906101000a900473ffffffffffffffffffffffffffffffffffffffff169050600073ffffffffffffffffffffffffffffffffffffffff168173ffffffffffffffffffffffffffffffffffffffff1614156108ff576040517f08c379a00000000000000000000000000000000000000000000000000000000081526004016108f690612b48565b60405180910390fd5b80915050919050565b60008073ffffffffffffffffffffffffffffffffffffffff168273ffffffffffffffffffffffffffffffffffffffff161415610979576040517f08c379a000000000000000000000000000000000000000000000000000000000815260040161097090612bda565b60405180910390fd5b600360008373ffffffffffffffffffffffffffffffffffffffff1673ffffffffffffffffffffffffffffffffffffffff168152602001908152602001600020549050919050565b6060600180546109cf90612709565b80601f01602080910402602001604051908101604052809291908181526020018280546109fb90612709565b8015610a485780601f10610a1d57610100808354040283529160200191610a48565b820191906000526020600020905b815481529060010190602001808311610a2b57829003601f168201915b5050505050905090565b610a5a611068565b73ffffffffffffffffffffffffffffffffffffffff168273ffffffffffffffffffffffffffffffffffffffff161415610ac8576040517f08c379a0000000000000000000000000000000000000000000000000000000008152600401610abf90612c46565b60405180910390fd5b8060056000610ad5611068565b73ffffffffffffffffffffffffffffffffffffffff1673ffffffffffffffffffffffffffffffffffffffff16815260200190815260200160002060008473ffffffffffffffffffffffffffffffffffffffff1673ffffffffffffffffffffffffffffffffffffffff16815260200190815260200160002060006101000a81548160ff0219169083151502179055508173ffffffffffffffffffffffffffffffffffffffff16610b82611068565b73ffffffffffffffffffffffffffffffffffffffff167f17307eab39ab6107e8899845ad3d59bd9653f200f220920489ca2b5937696c3183604051610bc791906120ce565b60405180910390a35050565b6000600d80549050905090565b610bf1610beb611068565b83611129565b610c30576040517f08c379a0000000000000000000000000000000000000000000000000000000008152600401610c2790612963565b60405180910390fd5b610c3c84848484611463565b50505050565b600d8181548110610c5257600080fd5b906000526020600020016000915090505481565b6060610c7182610ffc565b610cb0576040517f08c379a0000000000000000000000000000000000000000000000000000000008152600401610ca790612cd8565b60405180910390fd5b6000600a60008481526020019081526020016000208054610cd090612709565b80601f0160208091040260200160405190810160405280929190818152602001828054610cfc90612709565b8015610d495780601f10610d1e57610100808354040283529160200191610d49565b820191906000526020600020905b815481529060010190602001808311610d2c57829003601f168201915b505050505090506000610d5a6114bf565b9050600081511415610d70578192505050610db3565b600082511115610da5578082604051602001610d8d929190612d34565b60405160208183030381529060405292505050610db3565b610dae846114d6565b925050505b919050565b6000600560008473ffffffffffffffffffffffffffffffffffffffff1673ffffffffffffffffffffffffffffffffffffffff16815260200190815260200160002060008373ffffffffffffffffffffffffffffffffffffffff1673ffffffffffffffffffffffffffffffffffffffff16815260200190815260200160002060009054906101000a900460ff16905092915050565b6000600c82604051610e5e9190612d58565b908152602001604051809103902060009054906101000a900460ff1615610e8457600080fd5b610e8e600b61157d565b6000610e9a600b611593565b9050610ea684826115a1565b600d819080600181540180825580915050600190039060005260206000200160009091909190915055610ed9818461176f565b6001600c84604051610eeb9190612d58565b908152602001604051809103902060006101000a81548160ff0219169083151502179055508091505092915050565b60007f80ac58cd000000000000000000000000000000000000000000000000000000007bffffffffffffffffffffffffffffffffffffffffffffffffffffffff1916827bffffffffffffffffffffffffffffffffffffffffffffffffffffffff19161480610fe557507f5b5e139f000000000000000000000000000000000000000000000000000000007bffffffffffffffffffffffffffffffffffffffffffffffffffffffff1916827bffffffffffffffffffffffffffffffffffffffffffffffffffffffff1916145b80610ff55750610ff4826117e3565b5b9050919050565b60008073ffffffffffffffffffffffffffffffffffffffff166002600084815260200190815260200160002060009054906101000a900473ffffffffffffffffffffffffffffffffffffffff1673ffffffffffffffffffffffffffffffffffffffff1614159050919050565b600033905090565b816004600083815260200190815260200160002060006101000a81548173ffffffffffffffffffffffffffffffffffffffff021916908373ffffffffffffffffffffffffffffffffffffffff160217905550808273ffffffffffffffffffffffffffffffffffffffff166110e383610856565b73ffffffffffffffffffffffffffffffffffffffff167f8c5be1e5ebec7d5bd14f71427d1e84f3dd0314c0f7b2291e5b200ac8c7c3b92560405160405180910390a45050565b600061113482610ffc565b611173576040517f08c379a000000000000000000000000000000000000000000000000000000000815260040161116a90612de1565b60405180910390fd5b600061117e83610856565b90508073ffffffffffffffffffffffffffffffffffffffff168473ffffffffffffffffffffffffffffffffffffffff1614806111ed57508373ffffffffffffffffffffffffffffffffffffffff166111d584610516565b73ffffffffffffffffffffffffffffffffffffffff16145b806111fe57506111fd8185610db8565b5b91505092915050565b8273ffffffffffffffffffffffffffffffffffffffff1661122782610856565b73ffffffffffffffffffffffffffffffffffffffff161461127d576040517f08c379a000000000000000000000000000000000000000000000000000000000815260040161127490612e73565b60405180910390fd5b600073ffffffffffffffffffffffffffffffffffffffff168273ffffffffffffffffffffffffffffffffffffffff1614156112ed576040517f08c379a00000000000000000000000000000000000000000000000000000000081526004016112e490612f05565b60405180910390fd5b6112f883838361184d565b611303600082611070565b6001600360008573ffffffffffffffffffffffffffffffffffffffff1673ffffffffffffffffffffffffffffffffffffffff16815260200190815260200160002060008282546113539190612f54565b925050819055506001600360008473ffffffffffffffffffffffffffffffffffffffff1673ffffffffffffffffffffffffffffffffffffffff16815260200190815260200160002060008282546113aa9190612f88565b92505081905550816002600083815260200190815260200160002060006101000a81548173ffffffffffffffffffffffffffffffffffffffff021916908373ffffffffffffffffffffffffffffffffffffffff160217905550808273ffffffffffffffffffffffffffffffffffffffff168473ffffffffffffffffffffffffffffffffffffffff167fddf252ad1be2c89b69c2b068fc378daa952ba7f163c4a11628f55a4df523b3ef60405160405180910390a4505050565b61146e848484611207565b61147a84848484611961565b6114b9576040517f08c379a00000000000000000000000000000000000000000000000000000000081526004016114b090613050565b60405180910390fd5b50505050565b606060405180602001604052806000815250905090565b60606114e182610ffc565b611520576040517f08c379a0000000000000000000000000000000000000000000000000000000008152600401611517906130e2565b60405180910390fd5b600061152a6114bf565b9050600081511161154a5760405180602001604052806000815250611575565b8061155484611af8565b604051602001611565929190612d34565b6040516020818303038152906040525b915050919050565b6001816000016000828254019250508190555050565b600081600001549050919050565b600073ffffffffffffffffffffffffffffffffffffffff168273ffffffffffffffffffffffffffffffffffffffff161415611611576040517f08c379a00000000000000000000000000000000000000000000000000000000081526004016116089061314e565b60405180910390fd5b61161a81610ffc565b1561165a576040517f08c379a0000000000000000000000000000000000000000000000000000000008152600401611651906131ba565b60405180910390fd5b6116666000838361184d565b6001600360008473ffffffffffffffffffffffffffffffffffffffff1673ffffffffffffffffffffffffffffffffffffffff16815260200190815260200160002060008282546116b69190612f88565b92505081905550816002600083815260200190815260200160002060006101000a81548173ffffffffffffffffffffffffffffffffffffffff021916908373ffffffffffffffffffffffffffffffffffffffff160217905550808273ffffffffffffffffffffffffffffffffffffffff16600073ffffffffffffffffffffffffffffffffffffffff167fddf252ad1be2c89b69c2b068fc378daa952ba7f163c4a11628f55a4df523b3ef60405160405180910390a45050565b61177882610ffc565b6117b7576040517f08c379a00000000000000000000000000000000000000000000000000000000081526004016117ae9061324c565b60405180910390fd5b80600a600084815260200190815260200160002090805190602001906117de929190611f77565b505050565b60007f01ffc9a7000000000000000000000000000000000000000000000000000000007bffffffffffffffffffffffffffffffffffffffffffffffffffffffff1916827bffffffffffffffffffffffffffffffffffffffffffffffffffffffff1916149050919050565b611858838383611c59565b600073ffffffffffffffffffffffffffffffffffffffff168373ffffffffffffffffffffffffffffffffffffffff16141561189b5761189681611c5e565b6118da565b8173ffffffffffffffffffffffffffffffffffffffff168373ffffffffffffffffffffffffffffffffffffffff16146118d9576118d88382611ca7565b5b5b600073ffffffffffffffffffffffffffffffffffffffff168273ffffffffffffffffffffffffffffffffffffffff16141561191d5761191881611e14565b61195c565b8273ffffffffffffffffffffffffffffffffffffffff168273ffffffffffffffffffffffffffffffffffffffff161461195b5761195a8282611ee5565b5b5b505050565b60006119828473ffffffffffffffffffffffffffffffffffffffff16611f64565b15611aeb578373ffffffffffffffffffffffffffffffffffffffff1663150b7a026119ab611068565b8786866040518563ffffffff1660e01b81526004016119cd94939291906132c1565b602060405180830381600087803b1580156119e757600080fd5b505af1925050508015611a1857506040513d601f19601f82011682018060405250810190611a159190613322565b60015b611a9b573d8060008114611a48576040519150601f19603f3d011682016040523d82523d6000602084013e611a4d565b606091505b50600081511415611a93576040517f08c379a0000000000000000000000000000000000000000000000000000000008152600401611a8a90613050565b60405180910390fd5b805181602001fd5b63150b7a0260e01b7bffffffffffffffffffffffffffffffffffffffffffffffffffffffff1916817bffffffffffffffffffffffffffffffffffffffffffffffffffffffff191614915050611af0565b600190505b949350505050565b60606000821415611b40576040518060400160405280600181526020017f30000000000000000000000000000000000000000000000000000000000000008152509050611c54565b600082905060005b60008214611b72578080611b5b9061334f565b915050600a82611b6b91906133c7565b9150611b48565b60008167ffffffffffffffff811115611b8e57611b8d6123ef565b5b6040519080825280601f01601f191660200182016040528015611bc05781602001600182028036833780820191505090505b5090505b60008514611c4d57600182611bd99190612f54565b9150600a85611be891906133f8565b6030611bf49190612f88565b60f81b818381518110611c0a57611c09612aa7565b5b60200101907effffffffffffffffffffffffffffffffffffffffffffffffffffffffffffff1916908160001a905350600a85611c4691906133c7565b9450611bc4565b8093505050505b919050565b505050565b6008805490506009600083815260200190815260200160002081905550600881908060018154018082558091505060019003906000526020600020016000909190919091505550565b60006001611cb484610908565b611cbe9190612f54565b9050600060076000848152602001908152602001600020549050818114611da3576000600660008673ffffffffffffffffffffffffffffffffffffffff1673ffffffffffffffffffffffffffffffffffffffff168152602001908152602001600020600084815260200190815260200160002054905080600660008773ffffffffffffffffffffffffffffffffffffffff1673ffffffffffffffffffffffffffffffffffffffff168152602001908152602001600020600084815260200190815260200160002081905550816007600083815260200190815260200160002081905550505b6007600084815260200190815260200160002060009055600660008573ffffffffffffffffffffffffffffffffffffffff1673ffffffffffffffffffffffffffffffffffffffff16815260200190815260200160002060008381526020019081526020016000206000905550505050565b60006001600880549050611e289190612f54565b9050600060096000848152602001908152602001600020549050600060088381548110611e5857611e57612aa7565b5b906000526020600020015490508060088381548110611e7a57611e79612aa7565b5b906000526020600020018190555081600960008381526020019081526020016000208190555060096000858152602001908152602001600020600090556008805480611ec957611ec8613429565b5b6001900381819060005260206000200160009055905550505050565b6000611ef083610908565b905081600660008573ffffffffffffffffffffffffffffffffffffffff1673ffffffffffffffffffffffffffffffffffffffff168152602001908152602001600020600083815260200190815260200160002081905550806007600084815260200190815260200160002081905550505050565b600080823b905060008111915050919050565b828054611f8390612709565b90600052602060002090601f016020900481019282611fa55760008555611fec565b82601f10611fbe57805160ff1916838001178555611fec565b82800160010185558215611fec579182015b82811115611feb578251825591602001919060010190611fd0565b5b509050611ff99190611ffd565b5090565b5b80821115612016576000816000905550600101611ffe565b5090565b6000604051905090565b600080fd5b600080fd5b60007fffffffff0000000000000000000000000000000000000000000000000000000082169050919050565b6120638161202e565b811461206e57600080fd5b50565b6000813590506120808161205a565b92915050565b60006020828403121561209c5761209b612024565b5b60006120aa84828501612071565b91505092915050565b60008115159050919050565b6120c8816120b3565b82525050565b60006020820190506120e360008301846120bf565b92915050565b600081519050919050565b600082825260208201905092915050565b60005b83811015612123578082015181840152602081019050612108565b83811115612132576000848401525b50505050565b6000601f19601f8301169050919050565b6000612154826120e9565b61215e81856120f4565b935061216e818560208601612105565b61217781612138565b840191505092915050565b6000602082019050818103600083015261219c8184612149565b905092915050565b6000819050919050565b6121b7816121a4565b81146121c257600080fd5b50565b6000813590506121d4816121ae565b92915050565b6000602082840312156121f0576121ef612024565b5b60006121fe848285016121c5565b91505092915050565b600073ffffffffffffffffffffffffffffffffffffffff82169050919050565b600061223282612207565b9050919050565b61224281612227565b82525050565b600060208201905061225d6000830184612239565b92915050565b61226c81612227565b811461227757600080fd5b50565b60008135905061228981612263565b92915050565b600080604083850312156122a6576122a5612024565b5b60006122b48582860161227a565b92505060206122c5858286016121c5565b9150509250929050565b6122d8816121a4565b82525050565b60006020820190506122f360008301846122cf565b92915050565b60008060006060848603121561231257612311612024565b5b60006123208682870161227a565b93505060206123318682870161227a565b9250506040612342868287016121c5565b9150509250925092565b60006020828403121561236257612361612024565b5b60006123708482850161227a565b91505092915050565b612382816120b3565b811461238d57600080fd5b50565b60008135905061239f81612379565b92915050565b600080604083850312156123bc576123bb612024565b5b60006123ca8582860161227a565b92505060206123db85828601612390565b9150509250929050565b600080fd5b600080fd5b7f4e487b7100000000000000000000000000000000000000000000000000000000600052604160045260246000fd5b61242782612138565b810181811067ffffffffffffffff82111715612446576124456123ef565b5b80604052505050565b600061245961201a565b9050612465828261241e565b919050565b600067ffffffffffffffff821115612485576124846123ef565b5b61248e82612138565b9050602081019050919050565b82818337600083830152505050565b60006124bd6124b88461246a565b61244f565b9050828152602081018484840111156124d9576124d86123ea565b5b6124e484828561249b565b509392505050565b600082601f830112612501576125006123e5565b5b81356125118482602086016124aa565b91505092915050565b6000806000806080858703121561253457612533612024565b5b60006125428782880161227a565b94505060206125538782880161227a565b9350506040612564878288016121c5565b925050606085013567ffffffffffffffff81111561258557612584612029565b5b612591878288016124ec565b91505092959194509250565b600080604083850312156125b4576125b3612024565b5b60006125c28582860161227a565b92505060206125d38582860161227a565b9150509250929050565b600067ffffffffffffffff8211156125f8576125f76123ef565b5b61260182612138565b9050602081019050919050565b600061262161261c846125dd565b61244f565b90508281526020810184848401111561263d5761263c6123ea565b5b61264884828561249b565b509392505050565b600082601f830112612665576126646123e5565b5b813561267584826020860161260e565b91505092915050565b6000806040838503121561269557612694612024565b5b60006126a38582860161227a565b925050602083013567ffffffffffffffff8111156126c4576126c3612029565b5b6126d085828601612650565b9150509250929050565b7f4e487b7100000000000000000000000000000000000000000000000000000000600052602260045260246000fd5b6000600282049050600182168061272157607f821691505b60208210811415612735576127346126da565b5b50919050565b7f4552433732313a20617070726f76656420717565727920666f72206e6f6e657860008201527f697374656e7420746f6b656e0000000000000000000000000000000000000000602082015250565b6000612797602c836120f4565b91506127a28261273b565b604082019050919050565b600060208201905081810360008301526127c68161278a565b9050919050565b7f4552433732313a20617070726f76616c20746f2063757272656e74206f776e6560008201527f7200000000000000000000000000000000000000000000000000000000000000602082015250565b60006128296021836120f4565b9150612834826127cd565b604082019050919050565b600060208201905081810360008301526128588161281c565b9050919050565b7f4552433732313a20617070726f76652063616c6c6572206973206e6f74206f7760008201527f6e6572206e6f7220617070726f76656420666f7220616c6c0000000000000000602082015250565b60006128bb6038836120f4565b91506128c68261285f565b604082019050919050565b600060208201905081810360008301526128ea816128ae565b9050919050565b7f4552433732313a207472616e736665722063616c6c6572206973206e6f74206f60008201527f776e6572206e6f7220617070726f766564000000000000000000000000000000602082015250565b600061294d6031836120f4565b9150612958826128f1565b604082019050919050565b6000602082019050818103600083015261297c81612940565b9050919050565b7f455243373231456e756d657261626c653a206f776e657220696e646578206f7560008201527f74206f6620626f756e6473000000000000000000000000000000000000000000602082015250565b60006129df602b836120f4565b91506129ea82612983565b604082019050919050565b60006020820190508181036000830152612a0e816129d2565b9050919050565b7f455243373231456e756d657261626c653a20676c6f62616c20696e646578206f60008201527f7574206f6620626f756e64730000000000000000000000000000000000000000602082015250565b6000612a71602c836120f4565b9150612a7c82612a15565b604082019050919050565b60006020820190508181036000830152612aa081612a64565b9050919050565b7f4e487b7100000000000000000000000000000000000000000000000000000000600052603260045260246000fd5b7f4552433732313a206f776e657220717565727920666f72206e6f6e657869737460008201527f656e7420746f6b656e0000000000000000000000000000000000000000000000602082015250565b6000612b326029836120f4565b9150612b3d82612ad6565b604082019050919050565b60006020820190508181036000830152612b6181612b25565b9050919050565b7f4552433732313a2062616c616e636520717565727920666f7220746865207a6560008201527f726f206164647265737300000000000000000000000000000000000000000000602082015250565b6000612bc4602a836120f4565b9150612bcf82612b68565b604082019050919050565b60006020820190508181036000830152612bf381612bb7565b9050919050565b7f4552433732313a20617070726f766520746f2063616c6c657200000000000000600082015250565b6000612c306019836120f4565b9150612c3b82612bfa565b602082019050919050565b60006020820190508181036000830152612c5f81612c23565b9050919050565b7f45524337323155524953746f726167653a2055524920717565727920666f722060008201527f6e6f6e6578697374656e7420746f6b656e000000000000000000000000000000602082015250565b6000612cc26031836120f4565b9150612ccd82612c66565b604082019050919050565b60006020820190508181036000830152612cf181612cb5565b9050919050565b600081905092915050565b6000612d0e826120e9565b612d188185612cf8565b9350612d28818560208601612105565b80840191505092915050565b6000612d408285612d03565b9150612d4c8284612d03565b91508190509392505050565b6000612d648284612d03565b915081905092915050565b7f4552433732313a206f70657261746f7220717565727920666f72206e6f6e657860008201527f697374656e7420746f6b656e0000000000000000000000000000000000000000602082015250565b6000612dcb602c836120f4565b9150612dd682612d6f565b604082019050919050565b60006020820190508181036000830152612dfa81612dbe565b9050919050565b7f4552433732313a207472616e73666572206f6620746f6b656e2074686174206960008201527f73206e6f74206f776e0000000000000000000000000000000000000000000000602082015250565b6000612e5d6029836120f4565b9150612e6882612e01565b604082019050919050565b60006020820190508181036000830152612e8c81612e50565b9050919050565b7f4552433732313a207472616e7366657220746f20746865207a65726f2061646460008201527f7265737300000000000000000000000000000000000000000000000000000000602082015250565b6000612eef6024836120f4565b9150612efa82612e93565b604082019050919050565b60006020820190508181036000830152612f1e81612ee2565b9050919050565b7f4e487b7100000000000000000000000000000000000000000000000000000000600052601160045260246000fd5b6000612f5f826121a4565b9150612f6a836121a4565b925082821015612f7d57612f7c612f25565b5b828203905092915050565b6000612f93826121a4565b9150612f9e836121a4565b9250827fffffffffffffffffffffffffffffffffffffffffffffffffffffffffffffffff03821115612fd357612fd2612f25565b5b828201905092915050565b7f4552433732313a207472616e7366657220746f206e6f6e20455243373231526560008201527f63656976657220696d706c656d656e7465720000000000000000000000000000602082015250565b600061303a6032836120f4565b915061304582612fde565b604082019050919050565b600060208201905081810360008301526130698161302d565b9050919050565b7f4552433732314d657461646174613a2055524920717565727920666f72206e6f60008201527f6e6578697374656e7420746f6b656e0000000000000000000000000000000000602082015250565b60006130cc602f836120f4565b91506130d782613070565b604082019050919050565b600060208201905081810360008301526130fb816130bf565b9050919050565b7f4552433732313a206d696e7420746f20746865207a65726f2061646472657373600082015250565b60006131386020836120f4565b915061314382613102565b602082019050919050565b600060208201905081810360008301526131678161312b565b9050919050565b7f4552433732313a20746f6b656e20616c7265616479206d696e74656400000000600082015250565b60006131a4601c836120f4565b91506131af8261316e565b602082019050919050565b600060208201905081810360008301526131d381613197565b9050919050565b7f45524337323155524953746f726167653a2055524920736574206f66206e6f6e60008201527f6578697374656e7420746f6b656e000000000000000000000000000000000000602082015250565b6000613236602e836120f4565b9150613241826131da565b604082019050919050565b6000602082019050818103600083015261326581613229565b9050919050565b600081519050919050565b600082825260208201905092915050565b60006132938261326c565b61329d8185613277565b93506132ad818560208601612105565b6132b681612138565b840191505092915050565b60006080820190506132d66000830187612239565b6132e36020830186612239565b6132f060408301856122cf565b81810360608301526133028184613288565b905095945050505050565b60008151905061331c8161205a565b92915050565b60006020828403121561333857613337612024565b5b60006133468482850161330d565b91505092915050565b600061335a826121a4565b91507fffffffffffffffffffffffffffffffffffffffffffffffffffffffffffffffff82141561338d5761338c612f25565b5b600182019050919050565b7f4e487b7100000000000000000000000000000000000000000000000000000000600052601260045260246000fd5b60006133d2826121a4565b91506133dd836121a4565b9250826133ed576133ec613398565b5b828204905092915050565b6000613403826121a4565b915061340e836121a4565b92508261341e5761341d613398565b5b828206905092915050565b7f4e487b7100000000000000000000000000000000000000000000000000000000600052603160045260246000fdfea26469706673582212207489a4f78706d856e0bc1712c98b168357aade9e148d614b345df9c6c0305f0364736f6c63430008090033",
  "immutableReferences": {},
  "source": "// Contract based on https://docs.openzeppelin.com/contracts/4.x/erc721\r\n// SPDX-License-Identifier: MIT\r\n\r\npragma solidity ^0.8.0;\r\n\r\nimport \"@openzeppelin/contracts/token/ERC721/extensions/ERC721URIStorage.sol\";\r\nimport \"@openzeppelin/contracts/token/ERC721/extensions/ERC721Enumerable.sol\";\r\nimport \"@openzeppelin/contracts/utils/Counters.sol\";\r\n\r\ncontract Picasso is ERC721Enumerable {\r\n    using Strings for uint256;\r\n    // Optional mapping for token URIs\r\n    mapping(uint256 => string) private _tokenURIs;\r\n\r\n    using Counters for Counters.Counter;\r\n    Counters.Counter private _tokenCounter;\r\n\r\n    mapping(string => bool) _imageExists;\r\n    uint256[] public mintedTokenIds;\r\n\r\n    constructor() ERC721(\"Picasso\", \"PICASSO\") {\r\n\r\n    }\r\n\r\n    /**\r\n     * @dev See {IERC721Metadata-tokenURI}.\r\n     */\r\n    function tokenURI(uint256 tokenId) public view virtual override returns (string memory) {\r\n        require(_exists(tokenId), \"ERC721URIStorage: URI query for nonexistent token\");\r\n\r\n        string memory _tokenURI = _tokenURIs[tokenId];\r\n        string memory base = _baseURI();\r\n\r\n        // If there is no base URI, return the token URI.\r\n        if (bytes(base).length == 0) {\r\n            return _tokenURI;\r\n        }\r\n        // If both are set, concatenate the baseURI and tokenURI (via abi.encodePacked).\r\n        if (bytes(_tokenURI).length > 0) {\r\n            return string(abi.encodePacked(base, _tokenURI));\r\n        }\r\n\r\n        return super.tokenURI(tokenId);\r\n    }\r\n\r\n    /**\r\n     * @dev Sets `_tokenURI` as the tokenURI of `tokenId`.\r\n     *\r\n     * Requirements:\r\n     *\r\n     * - `tokenId` must exist.\r\n     */\r\n    function _setTokenURI(uint256 tokenId, string memory _tokenURI) internal virtual {\r\n        require(_exists(tokenId), \"ERC721URIStorage: URI set of nonexistent token\");\r\n        _tokenURIs[tokenId] = _tokenURI;\r\n    }\r\n\r\n    /**\r\n     * @dev Destroys `tokenId`.\r\n     * The approval is cleared when the token is burned.\r\n     *\r\n     * Requirements:\r\n     *\r\n     * - `tokenId` must exist.\r\n     *\r\n     * Emits a {Transfer} event.\r\n     */\r\n    function _burn(uint256 tokenId) internal virtual override {\r\n        super._burn(tokenId);\r\n\r\n        if (bytes(_tokenURIs[tokenId]).length != 0) {\r\n            delete _tokenURIs[tokenId];\r\n        }\r\n    }\r\n\r\n    \r\n    function mintNFT(address recipient, string memory URI)\r\n    public\r\n    returns (uint256)\r\n    {\r\n        // Make sure the tokenURI has not been minted\r\n        require(!_imageExists[URI]);\r\n        \r\n        // Increament id\r\n        _tokenCounter.increment();\r\n        uint256 newItemId = _tokenCounter.current();\r\n\r\n        // Mint\r\n        _mint(recipient, newItemId);\r\n        mintedTokenIds.push(newItemId);\r\n        _setTokenURI(newItemId, URI);\r\n\r\n        // Track minted tokenURI\r\n        _imageExists[URI] = true;\r\n\r\n        return newItemId;\r\n    }\r\n\r\n    function totalMinted() public view returns (uint256) {\r\n        return mintedTokenIds.length;\r\n    }\r\n}",
  "sourcePath": "C:\\Users\\samno\\picasso3\\src\\contracts\\Picasso.sol",
  "compiler": {
    "name": "solc",
    "version": "0.8.9+commit.e5eed63a.Emscripten.clang"
  },
  "schemaVersion": "3.4.3",
  "updatedAt": "2021-10-14T19:22:27.607Z",
  "networkType": "ethereum",
  "devdoc": {
    "kind": "dev",
    "methods": {
      "approve(address,uint256)": {
        "details": "See {IERC721-approve}."
      },
      "balanceOf(address)": {
        "details": "See {IERC721-balanceOf}."
      },
      "getApproved(uint256)": {
        "details": "See {IERC721-getApproved}."
      },
      "isApprovedForAll(address,address)": {
        "details": "See {IERC721-isApprovedForAll}."
      },
      "name()": {
        "details": "See {IERC721Metadata-name}."
      },
      "ownerOf(uint256)": {
        "details": "See {IERC721-ownerOf}."
      },
      "safeTransferFrom(address,address,uint256)": {
        "details": "See {IERC721-safeTransferFrom}."
      },
      "safeTransferFrom(address,address,uint256,bytes)": {
        "details": "See {IERC721-safeTransferFrom}."
      },
      "setApprovalForAll(address,bool)": {
        "details": "See {IERC721-setApprovalForAll}."
      },
      "supportsInterface(bytes4)": {
        "details": "See {IERC165-supportsInterface}."
      },
      "symbol()": {
        "details": "See {IERC721Metadata-symbol}."
      },
      "tokenByIndex(uint256)": {
        "details": "See {IERC721Enumerable-tokenByIndex}."
      },
      "tokenOfOwnerByIndex(address,uint256)": {
        "details": "See {IERC721Enumerable-tokenOfOwnerByIndex}."
      },
      "tokenURI(uint256)": {
        "details": "See {IERC721Metadata-tokenURI}."
      },
      "totalSupply()": {
        "details": "See {IERC721Enumerable-totalSupply}."
      },
      "transferFrom(address,address,uint256)": {
        "details": "See {IERC721-transferFrom}."
      }
    },
    "version": 1
  },
  "userdoc": {
    "kind": "user",
    "methods": {},
    "version": 1
  }
}